{
  "_format": "hh-sol-artifact-1",
  "contractName": "NFT",
  "sourceName": "contracts/NFT.sol",
  "abi": [
    {
      "inputs": [],
      "stateMutability": "nonpayable",
      "type": "constructor"
    },
    {
      "anonymous": false,
      "inputs": [
        {
          "indexed": true,
          "internalType": "address",
          "name": "owner",
          "type": "address"
        },
        {
          "indexed": true,
          "internalType": "address",
          "name": "approved",
          "type": "address"
        },
        {
          "indexed": true,
          "internalType": "uint256",
          "name": "tokenId",
          "type": "uint256"
        }
      ],
      "name": "Approval",
      "type": "event"
    },
    {
      "anonymous": false,
      "inputs": [
        {
          "indexed": true,
          "internalType": "address",
          "name": "owner",
          "type": "address"
        },
        {
          "indexed": true,
          "internalType": "address",
          "name": "operator",
          "type": "address"
        },
        {
          "indexed": false,
          "internalType": "bool",
          "name": "approved",
          "type": "bool"
        }
      ],
      "name": "ApprovalForAll",
      "type": "event"
    },
    {
      "anonymous": false,
      "inputs": [
        {
          "indexed": true,
          "internalType": "address",
          "name": "from",
          "type": "address"
        },
        {
          "indexed": true,
          "internalType": "address",
          "name": "to",
          "type": "address"
        },
        {
          "indexed": true,
          "internalType": "uint256",
          "name": "tokenId",
          "type": "uint256"
        }
      ],
      "name": "Transfer",
      "type": "event"
    },
    {
      "inputs": [
        {
          "internalType": "address",
          "name": "to",
          "type": "address"
        },
        {
          "internalType": "uint256",
          "name": "tokenId",
          "type": "uint256"
        }
      ],
      "name": "approve",
      "outputs": [],
      "stateMutability": "nonpayable",
      "type": "function"
    },
    {
      "inputs": [
        {
          "internalType": "address",
          "name": "owner",
          "type": "address"
        }
      ],
      "name": "balanceOf",
      "outputs": [
        {
          "internalType": "uint256",
          "name": "",
          "type": "uint256"
        }
      ],
      "stateMutability": "view",
      "type": "function"
    },
    {
      "inputs": [
        {
          "internalType": "uint256",
          "name": "tokenId",
          "type": "uint256"
        }
      ],
      "name": "getApproved",
      "outputs": [
        {
          "internalType": "address",
          "name": "",
          "type": "address"
        }
      ],
      "stateMutability": "view",
      "type": "function"
    },
    {
      "inputs": [
        {
          "internalType": "address",
          "name": "owner",
          "type": "address"
        },
        {
          "internalType": "address",
          "name": "operator",
          "type": "address"
        }
      ],
      "name": "isApprovedForAll",
      "outputs": [
        {
          "internalType": "bool",
          "name": "",
          "type": "bool"
        }
      ],
      "stateMutability": "view",
      "type": "function"
    },
    {
      "inputs": [
        {
          "internalType": "address",
          "name": "recipient",
          "type": "address"
        }
      ],
      "name": "mintTo",
      "outputs": [
        {
          "internalType": "uint256",
          "name": "",
          "type": "uint256"
        }
      ],
      "stateMutability": "nonpayable",
      "type": "function"
    },
    {
      "inputs": [],
      "name": "name",
      "outputs": [
        {
          "internalType": "string",
          "name": "",
          "type": "string"
        }
      ],
      "stateMutability": "view",
      "type": "function"
    },
    {
      "inputs": [
        {
          "internalType": "uint256",
          "name": "tokenId",
          "type": "uint256"
        }
      ],
      "name": "ownerOf",
      "outputs": [
        {
          "internalType": "address",
          "name": "",
          "type": "address"
        }
      ],
      "stateMutability": "view",
      "type": "function"
    },
    {
      "inputs": [
        {
          "internalType": "address",
          "name": "from",
          "type": "address"
        },
        {
          "internalType": "address",
          "name": "to",
          "type": "address"
        },
        {
          "internalType": "uint256",
          "name": "tokenId",
          "type": "uint256"
        }
      ],
      "name": "safeTransferFrom",
      "outputs": [],
      "stateMutability": "nonpayable",
      "type": "function"
    },
    {
      "inputs": [
        {
          "internalType": "address",
          "name": "from",
          "type": "address"
        },
        {
          "internalType": "address",
          "name": "to",
          "type": "address"
        },
        {
          "internalType": "uint256",
          "name": "tokenId",
          "type": "uint256"
        },
        {
          "internalType": "bytes",
          "name": "_data",
          "type": "bytes"
        }
      ],
      "name": "safeTransferFrom",
      "outputs": [],
      "stateMutability": "nonpayable",
      "type": "function"
    },
    {
      "inputs": [
        {
          "internalType": "address",
          "name": "operator",
          "type": "address"
        },
        {
          "internalType": "bool",
          "name": "approved",
          "type": "bool"
        }
      ],
      "name": "setApprovalForAll",
      "outputs": [],
      "stateMutability": "nonpayable",
      "type": "function"
    },
    {
      "inputs": [
        {
          "internalType": "bytes4",
          "name": "interfaceId",
          "type": "bytes4"
        }
      ],
      "name": "supportsInterface",
      "outputs": [
        {
          "internalType": "bool",
          "name": "",
          "type": "bool"
        }
      ],
      "stateMutability": "view",
      "type": "function"
    },
    {
      "inputs": [],
      "name": "symbol",
      "outputs": [
        {
          "internalType": "string",
          "name": "",
          "type": "string"
        }
      ],
      "stateMutability": "view",
      "type": "function"
    },
    {
      "inputs": [
        {
          "internalType": "uint256",
          "name": "tokenId",
          "type": "uint256"
        }
      ],
      "name": "tokenURI",
      "outputs": [
        {
          "internalType": "string",
          "name": "",
          "type": "string"
        }
      ],
      "stateMutability": "view",
      "type": "function"
    },
    {
      "inputs": [
        {
          "internalType": "address",
          "name": "from",
          "type": "address"
        },
        {
          "internalType": "address",
          "name": "to",
          "type": "address"
        },
        {
          "internalType": "uint256",
          "name": "tokenId",
          "type": "uint256"
        }
      ],
      "name": "transferFrom",
      "outputs": [],
      "stateMutability": "nonpayable",
      "type": "function"
    }
  ],
  "bytecode": "0x60806040523480156200001157600080fd5b506040518060400160405280600481526020017f4e465454000000000000000000000000000000000000000000000000000000008152506040518060400160405280600381526020017f4e46540000000000000000000000000000000000000000000000000000000000815250816000908051906020019062000096929190620000b8565b508060019080519060200190620000af929190620000b8565b505050620001cd565b828054620000c69062000197565b90600052602060002090601f016020900481019282620000ea576000855562000136565b82601f106200010557805160ff191683800117855562000136565b8280016001018555821562000136579182015b828111156200013557825182559160200191906001019062000118565b5b50905062000145919062000149565b5090565b5b80821115620001645760008160009055506001016200014a565b5090565b7f4e487b7100000000000000000000000000000000000000000000000000000000600052602260045260246000fd5b60006002820490506001821680620001b057607f821691505b60208210811415620001c757620001c662000168565b5b50919050565b6127a680620001dd6000396000f3fe608060405234801561001057600080fd5b50600436106100ea5760003560e01c806370a082311161008c578063a22cb46511610066578063a22cb4651461026f578063b88d4fde1461028b578063c87b56dd146102a7578063e985e9c5146102d7576100ea565b806370a08231146101f1578063755edd171461022157806395d89b4114610251576100ea565b8063095ea7b3116100c8578063095ea7b31461016d57806323b872dd1461018957806342842e0e146101a55780636352211e146101c1576100ea565b806301ffc9a7146100ef57806306fdde031461011f578063081812fc1461013d575b600080fd5b61010960048036038101906101049190611729565b610307565b6040516101169190611771565b60405180910390f35b6101276103e9565b6040516101349190611825565b60405180910390f35b6101576004803603810190610152919061187d565b61047b565b60405161016491906118eb565b60405180910390f35b61018760048036038101906101829190611932565b610500565b005b6101a3600480360381019061019e9190611972565b610618565b005b6101bf60048036038101906101ba9190611972565b610678565b005b6101db60048036038101906101d6919061187d565b610698565b6040516101e891906118eb565b60405180910390f35b61020b600480360381019061020691906119c5565b61074a565b6040516102189190611a01565b60405180910390f35b61023b600480360381019061023691906119c5565b610802565b6040516102489190611a01565b60405180910390f35b61025961082f565b6040516102669190611825565b60405180910390f35b61028960048036038101906102849190611a48565b6108c1565b005b6102a560048036038101906102a09190611bbd565b6108d7565b005b6102c160048036038101906102bc919061187d565b610939565b6040516102ce9190611825565b60405180910390f35b6102f160048036038101906102ec9190611c40565b6109e0565b6040516102fe9190611771565b60405180910390f35b60007f80ac58cd000000000000000000000000000000000000000000000000000000007bffffffffffffffffffffffffffffffffffffffffffffffffffffffff1916827bffffffffffffffffffffffffffffffffffffffffffffffffffffffff191614806103d257507f5b5e139f000000000000000000000000000000000000000000000000000000007bffffffffffffffffffffffffffffffffffffffffffffffffffffffff1916827bffffffffffffffffffffffffffffffffffffffffffffffffffffffff1916145b806103e257506103e182610a74565b5b9050919050565b6060600080546103f890611caf565b80601f016020809104026020016040519081016040528092919081815260200182805461042490611caf565b80156104715780601f1061044657610100808354040283529160200191610471565b820191906000526020600020905b81548152906001019060200180831161045457829003601f168201915b5050505050905090565b600061048682610ade565b6104c5576040517f08c379a00000000000000000000000000000000000000000000000000000000081526004016104bc90611d53565b60405180910390fd5b6004600083815260200190815260200160002060009054906101000a900473ffffffffffffffffffffffffffffffffffffffff169050919050565b600061050b82610698565b90508073ffffffffffffffffffffffffffffffffffffffff168373ffffffffffffffffffffffffffffffffffffffff16141561057c576040517f08c379a000000000000000000000000000000000000000000000000000000000815260040161057390611de5565b60405180910390fd5b8073ffffffffffffffffffffffffffffffffffffffff1661059b610b4a565b73ffffffffffffffffffffffffffffffffffffffff1614806105ca57506105c9816105c4610b4a565b6109e0565b5b610609576040517f08c379a000000000000000000000000000000000000000000000000000000000815260040161060090611e77565b60405180910390fd5b6106138383610b52565b505050565b610629610623610b4a565b82610c0b565b610668576040517f08c379a000000000000000000000000000000000000000000000000000000000815260040161065f90611f09565b60405180910390fd5b610673838383610ce9565b505050565b610693838383604051806020016040528060008152506108d7565b505050565b6000806002600084815260200190815260200160002060009054906101000a900473ffffffffffffffffffffffffffffffffffffffff169050600073ffffffffffffffffffffffffffffffffffffffff168173ffffffffffffffffffffffffffffffffffffffff161415610741576040517f08c379a000000000000000000000000000000000000000000000000000000000815260040161073890611f9b565b60405180910390fd5b80915050919050565b60008073ffffffffffffffffffffffffffffffffffffffff168273ffffffffffffffffffffffffffffffffffffffff1614156107bb576040517f08c379a00000000000000000000000000000000000000000000000000000000081526004016107b29061202d565b60405180910390fd5b600360008373ffffffffffffffffffffffffffffffffffffffff1673ffffffffffffffffffffffffffffffffffffffff168152602001908152602001600020549050919050565b600061080e6006610f50565b600061081a6006610f66565b90506108268382610f74565b80915050919050565b60606001805461083e90611caf565b80601f016020809104026020016040519081016040528092919081815260200182805461086a90611caf565b80156108b75780601f1061088c576101008083540402835291602001916108b7565b820191906000526020600020905b81548152906001019060200180831161089a57829003601f168201915b5050505050905090565b6108d36108cc610b4a565b8383610f92565b5050565b6108e86108e2610b4a565b83610c0b565b610927576040517f08c379a000000000000000000000000000000000000000000000000000000000815260040161091e90611f09565b60405180910390fd5b610933848484846110ff565b50505050565b606061094482610ade565b610983576040517f08c379a000000000000000000000000000000000000000000000000000000000815260040161097a906120bf565b60405180910390fd5b600061098d61115b565b905060008151116109ad57604051806020016040528060008152506109d8565b806109b784611172565b6040516020016109c892919061211b565b6040516020818303038152906040525b915050919050565b6000600560008473ffffffffffffffffffffffffffffffffffffffff1673ffffffffffffffffffffffffffffffffffffffff16815260200190815260200160002060008373ffffffffffffffffffffffffffffffffffffffff1673ffffffffffffffffffffffffffffffffffffffff16815260200190815260200160002060009054906101000a900460ff16905092915050565b60007f01ffc9a7000000000000000000000000000000000000000000000000000000007bffffffffffffffffffffffffffffffffffffffffffffffffffffffff1916827bffffffffffffffffffffffffffffffffffffffffffffffffffffffff1916149050919050565b60008073ffffffffffffffffffffffffffffffffffffffff166002600084815260200190815260200160002060009054906101000a900473ffffffffffffffffffffffffffffffffffffffff1673ffffffffffffffffffffffffffffffffffffffff1614159050919050565b600033905090565b816004600083815260200190815260200160002060006101000a81548173ffffffffffffffffffffffffffffffffffffffff021916908373ffffffffffffffffffffffffffffffffffffffff160217905550808273ffffffffffffffffffffffffffffffffffffffff16610bc583610698565b73ffffffffffffffffffffffffffffffffffffffff167f8c5be1e5ebec7d5bd14f71427d1e84f3dd0314c0f7b2291e5b200ac8c7c3b92560405160405180910390a45050565b6000610c1682610ade565b610c55576040517f08c379a0000000000000000000000000000000000000000000000000000000008152600401610c4c906121b1565b60405180910390fd5b6000610c6083610698565b90508073ffffffffffffffffffffffffffffffffffffffff168473ffffffffffffffffffffffffffffffffffffffff161480610ca25750610ca181856109e0565b5b80610ce057508373ffffffffffffffffffffffffffffffffffffffff16610cc88461047b565b73ffffffffffffffffffffffffffffffffffffffff16145b91505092915050565b8273ffffffffffffffffffffffffffffffffffffffff16610d0982610698565b73ffffffffffffffffffffffffffffffffffffffff1614610d5f576040517f08c379a0000000000000000000000000000000000000000000000000000000008152600401610d5690612243565b60405180910390fd5b600073ffffffffffffffffffffffffffffffffffffffff168273ffffffffffffffffffffffffffffffffffffffff161415610dcf576040517f08c379a0000000000000000000000000000000000000000000000000000000008152600401610dc6906122d5565b60405180910390fd5b610dda8383836112d3565b610de5600082610b52565b6001600360008573ffffffffffffffffffffffffffffffffffffffff1673ffffffffffffffffffffffffffffffffffffffff1681526020019081526020016000206000828254610e359190612324565b925050819055506001600360008473ffffffffffffffffffffffffffffffffffffffff1673ffffffffffffffffffffffffffffffffffffffff1681526020019081526020016000206000828254610e8c9190612358565b92505081905550816002600083815260200190815260200160002060006101000a81548173ffffffffffffffffffffffffffffffffffffffff021916908373ffffffffffffffffffffffffffffffffffffffff160217905550808273ffffffffffffffffffffffffffffffffffffffff168473ffffffffffffffffffffffffffffffffffffffff167fddf252ad1be2c89b69c2b068fc378daa952ba7f163c4a11628f55a4df523b3ef60405160405180910390a4610f4b8383836112d8565b505050565b6001816000016000828254019250508190555050565b600081600001549050919050565b610f8e8282604051806020016040528060008152506112dd565b5050565b8173ffffffffffffffffffffffffffffffffffffffff168373ffffffffffffffffffffffffffffffffffffffff161415611001576040517f08c379a0000000000000000000000000000000000000000000000000000000008152600401610ff8906123fa565b60405180910390fd5b80600560008573ffffffffffffffffffffffffffffffffffffffff1673ffffffffffffffffffffffffffffffffffffffff16815260200190815260200160002060008473ffffffffffffffffffffffffffffffffffffffff1673ffffffffffffffffffffffffffffffffffffffff16815260200190815260200160002060006101000a81548160ff0219169083151502179055508173ffffffffffffffffffffffffffffffffffffffff168373ffffffffffffffffffffffffffffffffffffffff167f17307eab39ab6107e8899845ad3d59bd9653f200f220920489ca2b5937696c31836040516110f29190611771565b60405180910390a3505050565b61110a848484610ce9565b61111684848484611338565b611155576040517f08c379a000000000000000000000000000000000000000000000000000000000815260040161114c9061248c565b60405180910390fd5b50505050565b606060405180602001604052806000815250905090565b606060008214156111ba576040518060400160405280600181526020017f300000000000000000000000000000000000000000000000000000000000000081525090506112ce565b600082905060005b600082146111ec5780806111d5906124ac565b915050600a826111e59190612524565b91506111c2565b60008167ffffffffffffffff81111561120857611207611a92565b5b6040519080825280601f01601f19166020018201604052801561123a5781602001600182028036833780820191505090505b5090505b600085146112c7576001826112539190612324565b9150600a856112629190612555565b603061126e9190612358565b60f81b81838151811061128457611283612586565b5b60200101907effffffffffffffffffffffffffffffffffffffffffffffffffffffffffffff1916908160001a905350600a856112c09190612524565b945061123e565b8093505050505b919050565b505050565b505050565b6112e783836114c0565b6112f46000848484611338565b611333576040517f08c379a000000000000000000000000000000000000000000000000000000000815260040161132a9061248c565b60405180910390fd5b505050565b60006113598473ffffffffffffffffffffffffffffffffffffffff1661169a565b156114b3578373ffffffffffffffffffffffffffffffffffffffff1663150b7a02611382610b4a565b8786866040518563ffffffff1660e01b81526004016113a4949392919061260a565b6020604051808303816000875af19250505080156113e057506040513d601f19601f820116820180604052508101906113dd919061266b565b60015b611463573d8060008114611410576040519150601f19603f3d011682016040523d82523d6000602084013e611415565b606091505b5060008151141561145b576040517f08c379a00000000000000000000000000000000000000000000000000000000081526004016114529061248c565b60405180910390fd5b805181602001fd5b63150b7a0260e01b7bffffffffffffffffffffffffffffffffffffffffffffffffffffffff1916817bffffffffffffffffffffffffffffffffffffffffffffffffffffffff1916149150506114b8565b600190505b949350505050565b600073ffffffffffffffffffffffffffffffffffffffff168273ffffffffffffffffffffffffffffffffffffffff161415611530576040517f08c379a0000000000000000000000000000000000000000000000000000000008152600401611527906126e4565b60405180910390fd5b61153981610ade565b15611579576040517f08c379a000000000000000000000000000000000000000000000000000000000815260040161157090612750565b60405180910390fd5b611585600083836112d3565b6001600360008473ffffffffffffffffffffffffffffffffffffffff1673ffffffffffffffffffffffffffffffffffffffff16815260200190815260200160002060008282546115d59190612358565b92505081905550816002600083815260200190815260200160002060006101000a81548173ffffffffffffffffffffffffffffffffffffffff021916908373ffffffffffffffffffffffffffffffffffffffff160217905550808273ffffffffffffffffffffffffffffffffffffffff16600073ffffffffffffffffffffffffffffffffffffffff167fddf252ad1be2c89b69c2b068fc378daa952ba7f163c4a11628f55a4df523b3ef60405160405180910390a4611696600083836112d8565b5050565b6000808273ffffffffffffffffffffffffffffffffffffffff163b119050919050565b6000604051905090565b600080fd5b600080fd5b60007fffffffff0000000000000000000000000000000000000000000000000000000082169050919050565b611706816116d1565b811461171157600080fd5b50565b600081359050611723816116fd565b92915050565b60006020828403121561173f5761173e6116c7565b5b600061174d84828501611714565b91505092915050565b60008115159050919050565b61176b81611756565b82525050565b60006020820190506117866000830184611762565b92915050565b600081519050919050565b600082825260208201905092915050565b60005b838110156117c65780820151818401526020810190506117ab565b838111156117d5576000848401525b50505050565b6000601f19601f8301169050919050565b60006117f78261178c565b6118018185611797565b93506118118185602086016117a8565b61181a816117db565b840191505092915050565b6000602082019050818103600083015261183f81846117ec565b905092915050565b6000819050919050565b61185a81611847565b811461186557600080fd5b50565b60008135905061187781611851565b92915050565b600060208284031215611893576118926116c7565b5b60006118a184828501611868565b91505092915050565b600073ffffffffffffffffffffffffffffffffffffffff82169050919050565b60006118d5826118aa565b9050919050565b6118e5816118ca565b82525050565b600060208201905061190060008301846118dc565b92915050565b61190f816118ca565b811461191a57600080fd5b50565b60008135905061192c81611906565b92915050565b60008060408385031215611949576119486116c7565b5b60006119578582860161191d565b925050602061196885828601611868565b9150509250929050565b60008060006060848603121561198b5761198a6116c7565b5b60006119998682870161191d565b93505060206119aa8682870161191d565b92505060406119bb86828701611868565b9150509250925092565b6000602082840312156119db576119da6116c7565b5b60006119e98482850161191d565b91505092915050565b6119fb81611847565b82525050565b6000602082019050611a1660008301846119f2565b92915050565b611a2581611756565b8114611a3057600080fd5b50565b600081359050611a4281611a1c565b92915050565b60008060408385031215611a5f57611a5e6116c7565b5b6000611a6d8582860161191d565b9250506020611a7e85828601611a33565b9150509250929050565b600080fd5b600080fd5b7f4e487b7100000000000000000000000000000000000000000000000000000000600052604160045260246000fd5b611aca826117db565b810181811067ffffffffffffffff82111715611ae957611ae8611a92565b5b80604052505050565b6000611afc6116bd565b9050611b088282611ac1565b919050565b600067ffffffffffffffff821115611b2857611b27611a92565b5b611b31826117db565b9050602081019050919050565b82818337600083830152505050565b6000611b60611b5b84611b0d565b611af2565b905082815260208101848484011115611b7c57611b7b611a8d565b5b611b87848285611b3e565b509392505050565b600082601f830112611ba457611ba3611a88565b5b8135611bb4848260208601611b4d565b91505092915050565b60008060008060808587031215611bd757611bd66116c7565b5b6000611be58782880161191d565b9450506020611bf68782880161191d565b9350506040611c0787828801611868565b925050606085013567ffffffffffffffff811115611c2857611c276116cc565b5b611c3487828801611b8f565b91505092959194509250565b60008060408385031215611c5757611c566116c7565b5b6000611c658582860161191d565b9250506020611c768582860161191d565b9150509250929050565b7f4e487b7100000000000000000000000000000000000000000000000000000000600052602260045260246000fd5b60006002820490506001821680611cc757607f821691505b60208210811415611cdb57611cda611c80565b5b50919050565b7f4552433732313a20617070726f76656420717565727920666f72206e6f6e657860008201527f697374656e7420746f6b656e0000000000000000000000000000000000000000602082015250565b6000611d3d602c83611797565b9150611d4882611ce1565b604082019050919050565b60006020820190508181036000830152611d6c81611d30565b9050919050565b7f4552433732313a20617070726f76616c20746f2063757272656e74206f776e6560008201527f7200000000000000000000000000000000000000000000000000000000000000602082015250565b6000611dcf602183611797565b9150611dda82611d73565b604082019050919050565b60006020820190508181036000830152611dfe81611dc2565b9050919050565b7f4552433732313a20617070726f76652063616c6c6572206973206e6f74206f7760008201527f6e6572206e6f7220617070726f76656420666f7220616c6c0000000000000000602082015250565b6000611e61603883611797565b9150611e6c82611e05565b604082019050919050565b60006020820190508181036000830152611e9081611e54565b9050919050565b7f4552433732313a207472616e736665722063616c6c6572206973206e6f74206f60008201527f776e6572206e6f7220617070726f766564000000000000000000000000000000602082015250565b6000611ef3603183611797565b9150611efe82611e97565b604082019050919050565b60006020820190508181036000830152611f2281611ee6565b9050919050565b7f4552433732313a206f776e657220717565727920666f72206e6f6e657869737460008201527f656e7420746f6b656e0000000000000000000000000000000000000000000000602082015250565b6000611f85602983611797565b9150611f9082611f29565b604082019050919050565b60006020820190508181036000830152611fb481611f78565b9050919050565b7f4552433732313a2062616c616e636520717565727920666f7220746865207a6560008201527f726f206164647265737300000000000000000000000000000000000000000000602082015250565b6000612017602a83611797565b915061202282611fbb565b604082019050919050565b600060208201905081810360008301526120468161200a565b9050919050565b7f4552433732314d657461646174613a2055524920717565727920666f72206e6f60008201527f6e6578697374656e7420746f6b656e0000000000000000000000000000000000602082015250565b60006120a9602f83611797565b91506120b48261204d565b604082019050919050565b600060208201905081810360008301526120d88161209c565b9050919050565b600081905092915050565b60006120f58261178c565b6120ff81856120df565b935061210f8185602086016117a8565b80840191505092915050565b600061212782856120ea565b915061213382846120ea565b91508190509392505050565b7f4552433732313a206f70657261746f7220717565727920666f72206e6f6e657860008201527f697374656e7420746f6b656e0000000000000000000000000000000000000000602082015250565b600061219b602c83611797565b91506121a68261213f565b604082019050919050565b600060208201905081810360008301526121ca8161218e565b9050919050565b7f4552433732313a207472616e736665722066726f6d20696e636f72726563742060008201527f6f776e6572000000000000000000000000000000000000000000000000000000602082015250565b600061222d602583611797565b9150612238826121d1565b604082019050919050565b6000602082019050818103600083015261225c81612220565b9050919050565b7f4552433732313a207472616e7366657220746f20746865207a65726f2061646460008201527f7265737300000000000000000000000000000000000000000000000000000000602082015250565b60006122bf602483611797565b91506122ca82612263565b604082019050919050565b600060208201905081810360008301526122ee816122b2565b9050919050565b7f4e487b7100000000000000000000000000000000000000000000000000000000600052601160045260246000fd5b600061232f82611847565b915061233a83611847565b92508282101561234d5761234c6122f5565b5b828203905092915050565b600061236382611847565b915061236e83611847565b9250827fffffffffffffffffffffffffffffffffffffffffffffffffffffffffffffffff038211156123a3576123a26122f5565b5b828201905092915050565b7f4552433732313a20617070726f766520746f2063616c6c657200000000000000600082015250565b60006123e4601983611797565b91506123ef826123ae565b602082019050919050565b60006020820190508181036000830152612413816123d7565b9050919050565b7f4552433732313a207472616e7366657220746f206e6f6e20455243373231526560008201527f63656976657220696d706c656d656e7465720000000000000000000000000000602082015250565b6000612476603283611797565b91506124818261241a565b604082019050919050565b600060208201905081810360008301526124a581612469565b9050919050565b60006124b782611847565b91507fffffffffffffffffffffffffffffffffffffffffffffffffffffffffffffffff8214156124ea576124e96122f5565b5b600182019050919050565b7f4e487b7100000000000000000000000000000000000000000000000000000000600052601260045260246000fd5b600061252f82611847565b915061253a83611847565b92508261254a576125496124f5565b5b828204905092915050565b600061256082611847565b915061256b83611847565b92508261257b5761257a6124f5565b5b828206905092915050565b7f4e487b7100000000000000000000000000000000000000000000000000000000600052603260045260246000fd5b600081519050919050565b600082825260208201905092915050565b60006125dc826125b5565b6125e681856125c0565b93506125f68185602086016117a8565b6125ff816117db565b840191505092915050565b600060808201905061261f60008301876118dc565b61262c60208301866118dc565b61263960408301856119f2565b818103606083015261264b81846125d1565b905095945050505050565b600081519050612665816116fd565b92915050565b600060208284031215612681576126806116c7565b5b600061268f84828501612656565b91505092915050565b7f4552433732313a206d696e7420746f20746865207a65726f2061646472657373600082015250565b60006126ce602083611797565b91506126d982612698565b602082019050919050565b600060208201905081810360008301526126fd816126c1565b9050919050565b7f4552433732313a20746f6b656e20616c7265616479206d696e74656400000000600082015250565b600061273a601c83611797565b915061274582612704565b602082019050919050565b600060208201905081810360008301526127698161272d565b905091905056fea26469706673582212204562879e9dda01126a12a9e50643110d409012c8ca9a1df6191434999140c16b64736f6c634300080a0033",
  "linkReferences": {},
  "deployedLinkReferences": {}
}